:100000000C9462000C948A000C948A000C948A0070
:100010000C948A000C948A000C948A000C948A0038
:100020000C948A000C948A000C948A000C948A0028
:100030000C948A000C948A000C948A000C948A0018
:100040000C9487050C948A000C9455050C942F058C
:100050000C948A000C948A000C948A000C948A00F8
:100060000C948A000C948A000000000023002600F3
:10007000290000000000240027002A0000000000E2
:10008000250028002B0004040404040404040202D4
:100090000202020203030303030301020408102007
:1000A0004080010204081020010204081020000012
:1000B0000008000201000003040700000000000027
:1000C0000000160611241FBECFEFD8E0DEBFCDBF63
:1000D00011E0A0E0B1E0ECEAF4E102C005900D927D
:1000E000AA3AB107D9F722E0AAEAB1E001C01D920D
:1000F000A438B207E1F710E0C2E6D0E004C02197CF
:10010000FE010E94470AC136D107C9F70E94840642
:100110000C94540A0C940000FC01538D448D252F3F
:1001200030E0842F90E0821B930B541710F0CF9691
:10013000089501970895FC01918D828D981761F0C3
:10014000A28DAE0FBF2FB11D5D968C91928D9F5FDA
:100150009F73928F90E008958FEF9FEF0895FC01B9
:10016000918D828D981731F0828DE80FF11D858D6C
:1001700090E008958FEF9FEF0895FC01918D228DFF
:10018000892F90E0805C9F4F821B91098F73992784
:100190000895FC01A48DA80FB92FB11DA35ABF4F1C
:1001A0002C91848D90E001968F739927848FA68976
:1001B000B7892C93A089B1898C91837080648C93CA
:1001C000938D848D981306C00288F389E02D808179
:1001D0008F7D80830895EF92FF920F931F93CF93AB
:1001E000DF93EC0181E0888F9B8D8C8D98131AC072
:1001F000E889F989808185FF15C09FB7F894EE8959
:10020000FF896083E889F9898081837080648083B5
:100210009FBF81E090E0DF91CF911F910F91FF9000
:10022000EF900895F62E0B8D10E00F5F1F4F0F73A8
:100230001127E02E8C8D8E110CC00FB607FCFACF63
:10024000E889F989808185FFF5CFCE010E94C90038
:10025000F1CFEB8DEC0FFD2FF11DE35AFF4FF08234
:100260009FB7F8940B8FEA89FB8980818062CFCF9A
:10027000CF93DF93EC01888D8823B9F0AA89BB89DD
:10028000E889F9898C9185FD03C0808186FD0DC0C8
:100290000FB607FCF7CF8C9185FFF2CF808185FFE9
:1002A000EDCFCE010E94C900E9CFDF91CF91089533
:1002B00089EB91E00E94BD0021E0892B09F420E048
:1002C000822F089580E090E0892B29F00E94580148
:1002D00081110C9400000895AF92BF92CF92DF92EB
:1002E000EF92FF920F931F93CF93DF936C017B01EB
:1002F0008B01040F151FEB015E01AE18BF08C0177C
:10030000D10759F06991D601ED91FC910190F081EE
:10031000E02DC6010995892B79F7C501DF91CF91B1
:100320001F910F91FF90EF90DF90CF90BF90AF9013
:10033000089590E0FC01E255FF4F2491FC01E65640
:10034000FF4F3491FC01EA57FF4FE491EE23C9F0CF
:10035000222339F0233001F1A8F4213019F12230A1
:1003600029F1F0E0EE0FFF1FE458FF4FA591B49183
:100370008FB7F894EC91611126C030953E233C93E1
:100380008FBF08952730A9F02830C9F0243049F7ED
:10039000809180008F7D03C0809180008F77809353
:1003A0008000DFCF84B58F7784BDDBCF84B58F7DB0
:1003B000FBCF8091B0008F778093B000D2CF809137
:1003C000B0008F7DF9CF3E2BDACFCF93DF9390E053
:1003D000FC01E656FF4F24918A579F4FFC01849100
:1003E0008823D1F090E0880F991FFC01EE58FF4F51
:1003F000A591B491FC01E458FF4FC591D4916111CE
:100400000EC09FB7F8948C91E22FE0958E238C93C9
:100410002881E223E8839FBFDF91CF9108958FB7B2
:10042000F894EC91E22BEC938FBFF6CF3FB7F894A2
:100430008091AF019091B001A091B101B091B20152
:1004400026B5A89B05C02F3F19F00196A11DB11D2F
:100450003FBFBA2FA92F982F8827BC01CD01620F6B
:10046000711D811D911D42E0660F771F881F991F26
:100470004A95D1F70895089590E080E00895FC0131
:100480008081882379F12FB7F8948091AB01909106
:10049000AC01A091AD01B091AE012FBF418152815D
:1004A00063817481841B950BA60BB70B4581568124
:1004B0006781708584179507A607B70798F02FB74F
:1004C000F8948091AB019091AC01A091AD01B091F5
:1004D000AE012FBF81839283A383B4830184F2850D
:1004E000E02D09940895CF92DF92EF92FF9280E47D
:1004F00080937C0080917A00806480937A00809160
:100500007A0086FDFCCF8091780060917900762F8B
:10051000682F072E000C880B990B0E94FE0820E024
:1005200030E040EA5BE30E94B30920E030E048ECB1
:1005300052E40E94B3096B017C01C092B501D092D4
:10054000B601E092B701F092B80120E030E040EF50
:1005500051E40E94AE0987FD12C061E081E00E9473
:10056000990160E080E00E94990166E271E083E316
:1005700091E0FF90EF90DF90CF900C944D0A20E037
:1005800030E040EA51E4C701B6010E94C1081816E4
:100590005CF061E080E00E94990160E081E00E94EF
:1005A000990167E471E0E3CF20E030E040EA51E4F4
:1005B000C701B6010E94AE0987FD15C020E030E0FA
:1005C00040EF51E4C701B6010E94C10818165CF063
:1005D00060E081E00E94990160E080E00E94990162
:1005E00064E571E0C4CFFF90EF90DF90CF90089565
:1005F000CF93DF93EC0160E08E810E94990161E06E
:100600008E810E94990160E08E810E9499018BE8A1
:1006100091E00197F1F7DF91CF910895CF92DF92AA
:10062000EF92FF920F931F93CF93DF936C017C01A6
:1006300087E0E80EF11CD0E0C0E0062F10E0B80122
:100640000C2E02C0759567950A94E2F76170F70168
:1006500081917F010E9499012196C430D10579F7DB
:10066000C601DF91CF911F910F91FF90EF90DF9026
:10067000CF900C94F802CF92DF92EF92FF920F93FB
:100680001F93CF93DF93EC01F62E642F8C810E9491
:1006900099018D818F3F19F060E00E9499010F2D23
:1006A00010E08F8584FF25C06E0187E0C80ED11C45
:1006B000F12CE12CB8010E2C02C0759567950A94B7
:1006C000E2F76170F60181916F010E949901FFEFDD
:1006D000EF1AFF0A88E0E816F10461F7CE01DF9116
:1006E000CF911F910F91FF90EF90DF90CF900C94DE
:1006F000F802B80184E0759567958A95E1F7CE0117
:100700000E940E036F2DCE01DF91CF911F910F91AB
:10071000FF90EF90DF90CF900C940E0340E0682F95
:100720008CE692E00C943B03CF93DF93823029F464
:1007300090917B02986090937B0280937F0210924D
:10074000800280E48093810280E18093820280E5D0
:100750008093830261E0809170020E94E5018091A4
:1007600071028F3F19F061E00E94E50161E0809124
:1007700072020E94E501CCE6D2E09E012C56324086
:1007800080917B0284FD0BC084E090E021962817C5
:10079000390744F461E08E810E94E501EECF88E0E4
:1007A00090E0F4CF8BE39DE00197F1F760E080915A
:1007B00070020E94990160E0809172020E9499018A
:1007C000809171028F3F19F060E00E949901809141
:1007D0007B0284FD39C063E08CE692E00E940E0348
:1007E000CBE4D6E4CE010197F1F763E08CE692E02A
:1007F0000E940E032197F1F763E08CE692E00E94DD
:100800000E0383E592E00197F1F762E08CE692E057
:100810000E940E0380917B0280620E948E0384E01E
:1008200080937C028CE00E948E0381E00E948E0304
:100830008BE39FE10197F1F782E080937D0286E0F0
:10084000DF91CF910C948E0380620E948E038BE423
:1008500096E40197F1F780917B0280620E948E03FB
:1008600083E592E00197F1F780917B0280620E941C
:100870008E03D0CF41E00E943B0381E090E00895D9
:10088000FB0101900020E9F73197AF01461B570BA0
:10089000DC01ED91FC910280F381E02D09948F92AF
:1008A0009F92AF92BF92EF92FF920F931F93CF93BD
:1008B000DF93CDB7DEB7A1970FB6F894DEBF0FBEBA
:1008C000CDBF7C01FA01CB0119A2223008F42AE045
:1008D0008E010F5D1F4F822E912CB12CA12CBF01D8
:1008E000A50194010E94250AF901CA016A300CF59C
:1008F000605DD8016E938D01232B242B252B79F776
:1009000090E080E0109721F0BD01C7010E944004F3
:10091000A1960FB6F894DEBF0FBECDBFDF91CF9189
:100920001F910F91FF90EF90BF90AF909F908F908D
:100930000895695CDECFCF92DF92EF92FF920F9322
:100940001F9360E089E00E94990183E090E00197A5
:10095000F1F761E089E00E94990183E290E001975C
:10096000F1F760E089E00E949901E4EAF0E0649127
:10097000E0E9F0E0E491F0E0EE0FFF1FE859FF4FEF
:100980008591949100E412E42FE030E0462F0E941C
:10099000D105611571058105910529F06F5F7F4FC4
:1009A0008F4F9F4F9F700E94FE0826E933E44BE073
:1009B0005DE30E94B30920E030E040E05FE30E9485
:1009C000B3090E94C6087093B4016093B30161E655
:1009D00071E089EB91E00E944004C090B301D09097
:1009E000B4010D2C000CEE08FF082AE0B701A601A7
:1009F000F7FE0DC06DE289EB91E00E94EB00442709
:100A00005527BA014C195D096E097F092AE089EB67
:100A100091E00E944F046BE671E089EB91E00E9447
:100A200040048091B3019091B4018536910584F022
:100A300061E086E00E9499016EE671E086E791E050
:100A40001F910F91FF90EF90DF90CF900C944D0A83
:100A500060E086E00E9499016FE771E0EFCF1F929E
:100A60000F920FB60F9211242F933F934F935F93E2
:100A70006F937F938F939F93AF93BF93EF93FF9366
:100A800089EB91E00E94C900FF91EF91BF91AF9176
:100A90009F918F917F916F915F914F913F912F9196
:100AA0000F900FBE0F901F9018951F920F920FB6C8
:100AB0000F9211242F938F939F93EF93FF93E091C5
:100AC000C901F091CA018081E091CF01F091D0017C
:100AD00082FD1BC090818091D2018F5F8F73209126
:100AE000D301821741F0E091D201F0E0E754FE4FCC
:100AF000958F8093D201FF91EF919F918F912F91CC
:100B00000F900FBE0F901F9018958081F4CF1F9209
:100B10000F920FB60F9211242F933F938F939F93B1
:100B2000AF93BF938091AB019091AC01A091AD01C7
:100B3000B091AE013091AA0123E0230F2D3758F573
:100B40000196A11DB11D2093AA018093AB01909342
:100B5000AC01A093AD01B093AE018091AF01909133
:100B6000B001A091B101B091B2010196A11DB11DDA
:100B70008093AF019093B001A093B101B093B20103
:100B8000BF91AF919F918F913F912F910F900FBE89
:100B90000F901F90189526E8230F0296A11DB11DF6
:100BA000D2CFCF92DF92EF92FF920F931F93E82F55
:100BB000F92F05C0015011092109310961F1908116
:100BC00096239417B9F305C0015011092109310981
:100BD00011F1908196239413F7CFC12CD12CE12CE5
:100BE000F12C0AC08FEFC81AD80AE80AF80A0C15C7
:100BF0001D052E053F0579F080818623841791F32A
:100C00006C2D7D2D8E2D9F2D1F910F91FF90EF90BC
:100C1000DF90CF90089560E070E080E090E01F9159
:100C20000F91FF90EF90DF90CF900895E9EBF1E006
:100C30001382128288EE93E0A0E0B0E08483958373
:100C4000A683B7838CE091E09183808385EC90E06C
:100C50009587848784EC90E09787868780EC90E086
:100C6000918B808B81EC90E0938B828B82EC90E077
:100C7000958B848B86EC90E0978B868B118E128EF1
:100C8000138E148EECE6F2E0138212828EE191E074
:100C9000918380838CE084838FEF85838BE08683D0
:100CA00085E0878384E0808783E0818782E0828794
:100CB0001386148615861686178681E00E94940393
:100CC000E1E6F2E021E02083118212821382148295
:100CD00080ED97E0A0E0B0E085839683A783B0879E
:100CE00043E752E052874187E6E5F2E02083118234
:100CF00012821382148285839683A783B0878BE93F
:100D000094E0928781870895789484B5826084BD49
:100D100084B5816084BD85B5826085BD85B58160FF
:100D200085BD80916E00816080936E00109281007D
:100D30008091810082608093810080918100816038
:100D400080938100809180008160809380008091F9
:100D5000B10084608093B1008091B0008160809385
:100D6000B00080917A00846080937A0080917A004C
:100D7000826080937A0080917A00816080937A000B
:100D800080917A00806880937A001092C10082E09E
:100D90000E94940361E081E00E94E50161E080E04F
:100DA0000E94E50161E086E00E94E50161E089E0E2
:100DB0000E94E50160E08AE00E94E5019BE3892E44
:100DC0009FE1992E20E0A22E20E0B22E81E692E053
:100DD0000E943F0286E592E00E943F0220E030E060
:100DE000A9016091B5017091B6018091B701909110
:100DF000B8010E94C108882309F49BC08091B30107
:100E00009091B401892B09F494C000E011E0D0E086
:100E1000C0E081E00E948E03C4010197F1F781E6F2
:100E200092E00E943F0286E592E00E943F02E1E0EC
:100E300080917F028111E0E0E195F0E0E459FD4FFF
:100E4000848980680E948E03F801619171918F01FD
:100E50006115710521F08CE692E00E944004209714
:100E600009F0F5C0E0917F02E23008F06EC0E15079
:100E7000F0E0E459FD4F848980680E948E03C090A1
:100E8000B501D090B601E090B701F090B801A7018C
:100E90009601C701B6010E94200A68E871E081113D
:100EA0001AC026013701E89477F82FEF3FEF4FE79C
:100EB0005FE7C301B2010E94200A811148C02FEFF1
:100EC0003FEF4FE75FE7C301B2010E94C108181668
:100ED000F4F56CE871E08CE692E00E9440040E9418
:100EE00016022B013C0180EDC82E87E0D82EE12CA4
:100EF000F12C0E9416026419750986099709683E4B
:100F0000734081059105A8F3F1E0CF1AD108E108FB
:100F1000F10828EE420E23E0521E611C711CC11420
:100F2000D104E104F10429F72196C530D10509F077
:100F300070CFA114B10409F449CF0E94580188234D
:100F400009F444CF0E94000041CFE1E091CF2FEFA0
:100F50003FEF4FE75FE4C701B6010E94AE091816E4
:100F60001CF460E971E0B7CF2FEF3FEF4FE75FEC84
:100F7000C701B6010E94C10887FDF3CF20E030E031
:100F8000A901C701B6010E94C10887FF0AC041E05C
:100F90006DE28CE692E00E943B03F7FAF094F7F8DA
:100FA000F0942AE037ED43EA5BE3C701B6010E9403
:100FB00055082B013C010E94CD086B017C010E9469
:100FC000FC089B01AC01C301B2010E9454082B0133
:100FD0003C012AE0B701A6018CE692E00E944F0492
:100FE00041E06EE28CE692E00E943B0320E030E0BC
:100FF00040E251E4C301B2010E94B3092B013C015C
:101000000E94CD086B01F12CE12C2AE0B701A6016A
:101010008CE692E00E944F04C701B6010E94FC08D2
:101020009B01AC01C301B2010E94540820E030E0F2
:1010300040E251E40E94B3090E94CD08AB0170E088
:1010400060E02AE08CE692E00E944F0448CFC23074
:10105000D10509F044CFE0917F02E23018F5E1506C
:10106000F0E0E459FD4F848980680E948E03C090AF
:10107000B301D090B4010D2C000CEE08FF082AE05B
:10108000B701A601F7FEDECF41E06DE28CE692E00B
:101090000E943B0344275527BA014C195D096E098C
:1010A0007F09CFCFE1E0DCCF5058BB27AA270E94B1
:1010B0006C080C9474090E94660938F00E946D094E
:1010C00020F039F49F3F19F426F40C9463090EF4D0
:1010D000E095E7FB0C945D09E92F0E94850958F320
:1010E000BA17620773078407950720F079F4A6F50D
:1010F0000C94A7090EF4E0950B2EBA2FA02D0B012E
:10110000B90190010C01CA01A0011124FF27591B4C
:1011100099F0593F50F4503E68F11A16F040A22F52
:10112000232F342F4427585FF3CF469537952795C3
:10113000A795F0405395C9F77EF41F16BA0B620BC2
:10114000730B840BBAF09150A1F0FF0FBB1F661F09
:10115000771F881FC2F70EC0BA0F621F731F841F4C
:1011600048F4879577956795B795F7959E3F08F072
:10117000B0CF9395880F08F09927EE0F9795879534
:1011800008950E94390908F481E008950E94CD086D
:101190006894B1110C94A80908950E948D0988F0F3
:1011A0009F5798F0B92F9927B751B0F0E1F0660F2B
:1011B000771F881F991F1AF0BA95C9F714C0B1306C
:1011C00091F00E94A709B1E008950C94A709672F38
:1011D000782F8827B85F39F0B93FCCF3869577959B
:1011E0006795B395D9F73EF4909580957095619584
:1011F0007F4F8F4F9F4F0895E89409C097FB3EF4AF
:1012000090958095709561957F4F8F4F9F4F992353
:10121000A9F0F92F96E9BB279395F69587957795D1
:101220006795B795F111F8CFFAF4BB0F11F460FF91
:101230001BC06F5F7F4F8F4F9F4F16C0882311F0E9
:1012400096E911C0772321F09EE8872F762F05C0FD
:10125000662371F096E8862F70E060E02AF09A9598
:10126000660F771F881FDAF7880F9695879597F98D
:101270000895990F0008550FAA0BE0E8FEEF161627
:101280001706E807F907C0F012161306E407F5077A
:1012900098F0621B730B840B950B39F40A2661F0EE
:1012A000232B242B252B21F408950A2609F4A14091
:1012B000A6958FEF811D811D089597F99F6780E89E
:1012C00070E060E008959FEF80EC089500240A9498
:1012D0001616170618060906089500240A94121611
:1012E0001306140605060895092E0394000C11F444
:1012F000882352F0BB0F40F4BF2B11F460FF04C0F1
:101300006F5F7F4F8F4F9F4F089557FD9058440F49
:10131000551F59F05F3F71F04795880F97FB991F54
:1013200061F09F3F79F08795089512161306140611
:10133000551FF2CF4695F1DF08C01616170618069E
:10134000991FF1CF86957105610508940895E89479
:10135000BB2766277727CB0197F908950E943909A3
:1013600008F48FEF08950E94C6090C9474090E9436
:10137000660938F00E946D0920F0952311F00C9455
:101380005D090C94630911240C94A8090E94850935
:1013900070F3959FC1F3950F50E0551F629FF001C8
:1013A000729FBB27F00DB11D639FAA27F00DB11DE1
:1013B000AA1F649F6627B00DA11D661F829F22276A
:1013C000B00DA11D621F739FB00DA11D621F839FF1
:1013D000A00D611D221F749F3327A00D611D231FC7
:1013E000849F600D211D822F762F6A2F11249F5715
:1013F00050409AF0F1F088234AF0EE0FFF1FBB1F18
:10140000661F771F881F91505040A9F79E3F5105D6
:1014100080F00C945D090C94A8095F3FE4F3983EBA
:10142000D4F3869577956795B795F795E7959F5F80
:10143000C1F7FE2B880F911D9695879597F9089512
:101440000E943909880B990B0895A1E21A2EAA1B54
:10145000BB1BFD010DC0AA1FBB1FEE1FFF1FA21764
:10146000B307E407F50720F0A21BB30BE40BF50B61
:10147000661F771F881F991F1A9469F760957095EA
:10148000809590959B01AC01BD01CF010895EE0FB1
:10149000FF1F0590F491E02D0994FB01DC01019000
:0C14A0000D920020E1F70895F894FFCFB2
:1014AC00940133019B01760100000000EB006C01FC
:1014BC008C003801BD009B00AF00000000003A0416
:1014CC006C013C023B02436F6F6C657220697320A8
:1014DC006F6E004E6F20636F6F6C6572206F7220A1
:1014EC006865617465720048656174657220697322
:1014FC00206F6E0054656D7020697320676F6F6488
:10150C000044697374616E63653A000D0A0050758E
:10151C006D62206F6E0070756D62206F6666005094
:10152C00756D62206F6666006E616E00696E660096
:10153C006F766600546D7020697300776174657204
:0A154C00206C766C2069732000000B
:00000001FF
