:100000000C9462000C948A000C948A000C948A0070
:100010000C948A000C948A000C948A000C948A0038
:100020000C948A000C948A000C948A000C948A0028
:100030000C948A000C948A000C948A000C948A0018
:100040000C947F050C948A000C944D050C942705A4
:100050000C948A000C948A000C948A000C948A00F8
:100060000C948A000C948A000000000023002600F3
:10007000290000000000240027002A0000000000E2
:10008000250028002B0004040404040404040202D4
:100090000202020203030303030301020408102007
:1000A0004080010204081020010204081020000012
:1000B0000008000201000003040700000000000027
:1000C00000000E0611241FBECFEFD8E0DEBFCDBF6B
:1000D00011E0A0E0B1E0EEE9F4E102C005900D927C
:1000E000AC3AB107D9F722E0ACEAB1E001C01D9209
:1000F000A638B207E1F710E0C2E6D0E004C02197CD
:10010000FE010E94400AC136D107C9F70E947C0651
:100110000C944D0A0C940000FC01538D448D252F46
:1001200030E0842F90E0821B930B541710F0CF9691
:10013000089501970895FC01918D828D981761F0C3
:10014000A28DAE0FBF2FB11D5D968C91928D9F5FDA
:100150009F73928F90E008958FEF9FEF0895FC01B9
:10016000918D828D981731F0828DE80FF11D858D6C
:1001700090E008958FEF9FEF0895FC01918D228DFF
:10018000892F90E0805C9F4F821B91098F73992784
:100190000895FC01A48DA80FB92FB11DA35ABF4F1C
:1001A0002C91848D90E001968F739927848FA68976
:1001B000B7892C93A089B1898C91837080648C93CA
:1001C000938D848D981306C00288F389E02D808179
:1001D0008F7D80830895EF92FF920F931F93CF93AB
:1001E000DF93EC0181E0888F9B8D8C8D98131AC072
:1001F000E889F989808185FF15C09FB7F894EE8959
:10020000FF896083E889F9898081837080648083B5
:100210009FBF81E090E0DF91CF911F910F91FF9000
:10022000EF900895F62E0B8D10E00F5F1F4F0F73A8
:100230001127E02E8C8D8E110CC00FB607FCFACF63
:10024000E889F989808185FFF5CFCE010E94C90038
:10025000F1CFEB8DEC0FFD2FF11DE35AFF4FF08234
:100260009FB7F8940B8FEA89FB8980818062CFCF9A
:10027000CF93DF93EC01888D8823B9F0AA89BB89DD
:10028000E889F9898C9185FD03C0808186FD0DC0C8
:100290000FB607FCF7CF8C9185FFF2CF808185FFE9
:1002A000EDCFCE010E94C900E9CFDF91CF91089533
:1002B0008BEB91E00E94BD0021E0892B09F420E046
:1002C000822F089580E090E0892B29F00E94580148
:1002D00081110C9400000895AF92BF92CF92DF92EB
:1002E000EF92FF920F931F93CF93DF936C017B01EB
:1002F0008B01040F151FEB015E01AE18BF08C0177C
:10030000D10759F06991D601ED91FC910190F081EE
:10031000E02DC6010995892B79F7C501DF91CF91B1
:100320001F910F91FF90EF90DF90CF90BF90AF9013
:10033000089590E0FC01E255FF4F2491FC01E65640
:10034000FF4F3491FC01EA57FF4FE491EE23C9F0CF
:10035000222339F0233001F1A8F4213019F12230A1
:1003600029F1F0E0EE0FFF1FE458FF4FA591B49183
:100370008FB7F894EC91611126C030953E233C93E1
:100380008FBF08952730A9F02830C9F0243049F7ED
:10039000809180008F7D03C0809180008F77809353
:1003A0008000DFCF84B58F7784BDDBCF84B58F7DB0
:1003B000FBCF8091B0008F778093B000D2CF809137
:1003C000B0008F7DF9CF3E2BDACFCF93DF9390E053
:1003D000FC01E656FF4F24918A579F4FFC01849100
:1003E0008823D1F090E0880F991FFC01EE58FF4F51
:1003F000A591B491FC01E458FF4FC591D4916111CE
:100400000EC09FB7F8948C91E22FE0958E238C93C9
:100410002881E223E8839FBFDF91CF9108958FB7B2
:10042000F894EC91E22BEC938FBFF6CF3FB7F894A2
:100430008091B1019091B201A091B301B091B4014A
:1004400026B5A89B05C02F3F19F00196A11DB11D2F
:100450003FBFBA2FA92F982F8827BC01CD01620F6B
:10046000711D811D911D42E0660F771F881F991F26
:100470004A95D1F70895089590E080E00895FC0131
:100480008081882379F12FB7F8948091AD01909104
:10049000AE01A091AF01B091B0012FBF4181528157
:1004A00063817481841B950BA60BB70B4581568124
:1004B0006781708584179507A607B70798F02FB74F
:1004C000F8948091AD019091AE01A091AF01B091EF
:1004D000B0012FBF81839283A383B4830184F2850B
:1004E000E02D09940895CF92DF92EF92FF9280E47D
:1004F00080937C0080917A00806480937A00809160
:100500007A0086FDFCCF8091780060917900762F8B
:10051000682F072E000C880B990B0E94F70820E02B
:1005200030E040EA5BE30E94AC0920E030E048ECB8
:1005300052E40E94AC096B017C01C092B701D092D9
:10054000B801E092B901F092BA0120E030E040EF4A
:1005500051E40E94A70987FD0EC061E081E00E947E
:10056000990166E271E083E391E0FF90EF90DF9004
:10057000CF900C94460A20E030E040EA51E4C701F5
:10058000B6010E94BA0818163CF061E080E00E94B3
:10059000990167E471E0E7CF20E030E040EA51E400
:1005A000C701B6010E94A70987FD15C020E030E011
:1005B00040EF51E4C701B6010E94BA0818165CF07A
:1005C00060E081E00E94990160E080E00E94990172
:1005D00064E571E0C8CFFF90EF90DF90CF90089571
:1005E000CF93DF93EC0160E08E810E94990161E07E
:1005F0008E810E94990160E08E810E9499018BE8B2
:1006000091E00197F1F7DF91CF910895CF92DF92BA
:10061000EF92FF920F931F93CF93DF936C017C01B6
:1006200087E0E80EF11CD0E0C0E0062F10E0B80132
:100630000C2E02C0759567950A94E2F76170F70178
:1006400081917F010E9499012196C430D10579F7EB
:10065000C601DF91CF911F910F91FF90EF90DF9036
:10066000CF900C94F002CF92DF92EF92FF920F9313
:100670001F93CF93DF93EC01F62E642F8C810E94A1
:1006800099018D818F3F19F060E00E9499010F2D33
:1006900010E08F8584FF25C06E0187E0C80ED11C55
:1006A000F12CE12CB8010E2C02C0759567950A94C7
:1006B000E2F76170F60181916F010E949901FFEFED
:1006C000EF1AFF0A88E0E816F10461F7CE01DF9126
:1006D000CF911F910F91FF90EF90DF90CF900C94EE
:1006E000F002B80184E0759567958A95E1F7CE012F
:1006F0000E9406036F2DCE01DF91CF911F910F91C4
:10070000FF90EF90DF90CF900C94060340E0682FAD
:100710008EE692E00C943303CF93DF93823029F47A
:1007200090917D02986090937D0280938102109257
:10073000820280E48093830280E18093840280E5DA
:100740008093850261E0809172020E94E5018091B0
:1007500073028F3F19F061E00E94E50161E0809132
:1007600074020E94E501CEE6D2E09E012E56324090
:1007700080917D0284FD0BC084E090E021962817D3
:10078000390744F461E08E810E94E501EECF88E0F4
:1007900090E0F4CF8BE39DE00197F1F760E080916A
:1007A00072020E94990160E0809174020E94990196
:1007B000809173028F3F19F060E00E94990180914F
:1007C0007D0284FD39C063E08EE692E00E9406035C
:1007D000CBE4D6E4CE010197F1F763E08EE692E038
:1007E0000E9406032197F1F763E08EE692E00E94F3
:1007F000060383E592E00197F1F762E08EE692E06E
:100800000E94060380917D0280620E94860384E03C
:1008100080937E028CE00E94860381E00E94860322
:100820008BE39FE10197F1F782E080937F0286E0FE
:10083000DF91CF910C94860380620E9486038BE443
:1008400096E40197F1F780917D0280620E94860311
:1008500083E592E00197F1F780917D0280620E942A
:100860008603D0CF41E00E94330381E090E00895F9
:10087000FB0101900020E9F73197AF01461B570BB0
:10088000DC01ED91FC910280F381E02D09948F92BF
:100890009F92AF92BF92EF92FF920F931F93CF93CD
:1008A000DF93CDB7DEB7A1970FB6F894DEBF0FBECA
:1008B000CDBF7C01FA01CB0119A2223008F42AE055
:1008C0008E010F5D1F4F822E912CB12CA12CBF01E8
:1008D000A50194010E941E0AF901CA016A300CF5B3
:1008E000605DD8016E938D01232B242B252B79F786
:1008F00090E080E0109721F0BD01C7010E9438040C
:10090000A1960FB6F894DEBF0FBECDBFDF91CF9199
:100910001F910F91FF90EF90BF90AF909F908F909D
:100920000895695CDECFCF92DF92EF92FF920F9332
:100930001F9360E089E00E94990183E090E00197B5
:10094000F1F761E089E00E94990183E290E001976C
:10095000F1F760E089E00E949901E4EAF0E0649137
:10096000E0E9F0E0E491F0E0EE0FFF1FE859FF4FFF
:100970008591949100E412E42FE030E0462F0E942C
:10098000C905611571058105910529F06F5F7F4FDC
:100990008F4F9F4F9F700E94F70826E933E44BE08A
:1009A0005DE30E94AC0920E030E040E05FE30E949C
:1009B000AC090E94BF087093B6016093B50161E66F
:1009C00071E08BEB91E00E943804C090B501D090AB
:1009D000B6010D2C000CEE08FF082AE0B701A601B5
:1009E000F7FE0DC06DE28BEB91E00E94EB00442717
:1009F0005527BA014C195D096E097F092AE08BEB76
:100A000091E00E9447046BE671E08BEB91E00E945D
:100A100038048091B5019091B6018536910584F036
:100A200061E086E00E9499016EE671E086E791E060
:100A30001F910F91FF90EF90DF90CF900C94460A9A
:100A400060E086E00E9499016FE771E0EFCF1F92AE
:100A50000F920FB60F9211242F933F934F935F93F2
:100A60006F937F938F939F93AF93BF93EF93FF9376
:100A70008BEB91E00E94C900FF91EF91BF91AF9184
:100A80009F918F917F916F915F914F913F912F91A6
:100A90000F900FBE0F901F9018951F920F920FB6D8
:100AA0000F9211242F938F939F93EF93FF93E091D5
:100AB000CB01F091CC018081E091D101F091D20184
:100AC00082FD1BC090818091D4018F5F8F73209134
:100AD000D501821741F0E091D401F0E0E554FE4FDA
:100AE000958F8093D401FF91EF919F918F912F91DA
:100AF0000F900FBE0F901F9018958081F4CF1F921A
:100B00000F920FB60F9211242F933F938F939F93C1
:100B1000AF93BF938091AD019091AE01A091AF01D1
:100B2000B091B0013091AC0123E0230F2D3758F57F
:100B30000196A11DB11D2093AC018093AD0190934E
:100B4000AE01A093AF01B093B0018091B10190913B
:100B5000B201A091B301B091B4010196A11DB11DE4
:100B60008093B1019093B201A093B301B093B4010B
:100B7000BF91AF919F918F913F912F910F900FBE99
:100B80000F901F90189526E8230F0296A11DB11D06
:100B9000D2CFCF92DF92EF92FF920F931F93E82F65
:100BA000F92F05C0015011092109310961F1908126
:100BB00096239417B9F305C0015011092109310991
:100BC00011F1908196239413F7CFC12CD12CE12CF5
:100BD000F12C0AC08FEFC81AD80AE80AF80A0C15D7
:100BE0001D052E053F0579F080818623841791F33A
:100BF0006C2D7D2D8E2D9F2D1F910F91FF90EF90CD
:100C0000DF90CF90089560E070E080E090E01F9169
:100C10000F91FF90EF90DF90CF900895EBEBF1E014
:100C20001382128288EE93E0A0E0B0E08483958383
:100C3000A683B7838CE091E09183808385EC90E07C
:100C40009587848784EC90E09787868780EC90E096
:100C5000918B808B81EC90E0938B828B82EC90E087
:100C6000958B848B86EC90E0978B868B118E128E01
:100C7000138E148EEEE6F2E0138212828EE191E082
:100C8000918380838CE084838FEF85838BE08683E0
:100C900085E0878384E0808783E0818782E08287A4
:100CA0001386148615861686178681E00E948C03AB
:100CB000E3E6F2E021E020831182128213821482A3
:100CC0008CEB92E0A0E0B0E085839683A783B087A9
:100CD00043E752E052874187E8E5F2E02083118242
:100CE00012821382148285839683A783B08783E957
:100CF00094E0928781870895789484B5826084BD5A
:100D000084B5816084BD85B5826085BD85B581600F
:100D100085BD80916E00816080936E00109281008D
:100D20008091810082608093810080918100816048
:100D30008093810080918000816080938000809109
:100D4000B10084608093B1008091B0008160809395
:100D5000B00080917A00846080937A0080917A005C
:100D6000826080937A0080917A00816080937A001B
:100D700080917A00806880937A001092C10082E0AE
:100D80000E948C0361E081E00E94E50161E080E067
:100D90000E94E50161E086E00E94E50161E089E0F2
:100DA0000E94E50160E08AE00E94E5019BE3892E54
:100DB0009FE1992E20E0A22E20E0B22E83E692E061
:100DC0000E943F0288E592E00E943F0220E030E06E
:100DD000A9016091B7017091B8018091B90190911A
:100DE000BA010E94BA08882309F49CC08091B50119
:100DF0009091B601892B09F495C000E011E0D0E094
:100E0000C0E083E692E00E943F0288E592E00E9403
:100E10003F02E1E0809181028111E0E0E195F0E0A4
:100E2000E259FD4F848980680E948603F801619130
:100E300071918F016115710521F08EE692E00E949B
:100E40003804209709F0FCC0E0918102E23008F0FC
:100E500075C0E150F0E0E259FD4F848980680E943E
:100E60008603C090B701D090B801E090B901F0902E
:100E7000BA01A7019601C701B6010E94190A68E8E4
:100E800071E081111BC026013701E89477F82FEF3C
:100E90003FEF4FE75FE7C301B2010E94190A8111DA
:100EA0004FC02FEF3FEF4FE75FE7C301B2010E9452
:100EB000BA0818160CF044C06CE871E08EE692E0B7
:100EC0000E9438040E9416022B013C0188EEC82EB5
:100ED00083E0D82EE12CF12C0E94160264197509CA
:100EE00086099709683E734081059105A8F3F1E0F2
:100EF000CF1AD108E108F10828EE420E23E0521E75
:100F0000611C711CC114D104E104F10429F781E0D2
:100F10000E948603C4010197F1F72196C530D105DF
:100F200009F06FCFA114B10409F448CF0E94580111
:100F3000882309F443CF0E94000040CFE1E08ACF2C
:100F40002FEF3FEF4FE75FE4C701B6010E94A7090B
:100F500018161CF460E971E0B1CF2FEF3FEF4FE7B7
:100F60005FECC701B6010E94BA0887FDF3CF20E00D
:100F700030E0A901C701B6010E94BA0887FF0AC084
:100F800041E06DE28EE692E00E943303F7FAF094BE
:100F9000F7F8F0942AE037ED43EA5BE3C701B601C6
:100FA0000E944E082B013C010E94C6086B017C0187
:100FB0000E94F5089B01AC01C301B2010E944D08DB
:100FC0002B013C012AE0B701A6018EE692E00E94C7
:100FD000470441E06EE28EE692E00E94330320E097
:100FE00030E040E251E4C301B2010E94AC092B01A0
:100FF0003C010E94C6086B01F12CE12C2AE0B701EC
:10100000A6018EE692E00E944704C701B6010E9445
:10101000F5089B01AC01C301B2010E944D0820E01C
:1010200030E040E251E40E94AC090E94C608AB01E6
:1010300070E060E02AE08EE692E00E94470442CF32
:10104000C230D10509F03ECFE0918102E23018F5BF
:10105000E150F0E0E259FD4F848980680E948603E8
:10106000C090B501D090B6010D2C000CEE08FF0821
:101070002AE0B701A601F7FEDECF41E06DE28EE681
:1010800092E00E94330344275527BA014C195D09A9
:101090006E097F09CFCFE1E0DCCF5058BB27AA27EC
:1010A0000E9465080C946D090E945F0938F00E9447
:1010B000660920F039F49F3F19F426F40C945C097A
:1010C0000EF4E095E7FB0C945609E92F0E947E0987
:1010D00058F3BA17620773078407950720F079F46D
:1010E000A6F50C94A0090EF4E0950B2EBA2FA02DB6
:1010F0000B01B90190010C01CA01A0011124FF27C5
:10110000591B99F0593F50F4503E68F11A16F040BF
:10111000A22F232F342F4427585FF3CF46953795BE
:101120002795A795F0405395C9F77EF41F16BA0B83
:10113000620B730B840BBAF09150A1F0FF0FBB1F31
:10114000661F771F881FC2F70EC0BA0F621F731F7A
:10115000841F48F4879577956795B795F7959E3FD7
:1011600008F0B0CF9395880F08F09927EE0F979568
:10117000879508950E94320908F481E008950E943D
:10118000C6086894B1110C94A10908950E948609BB
:1011900088F09F5798F0B92F9927B751B0F0E1F038
:1011A000660F771F881F991F1AF0BA95C9F714C0E8
:1011B000B13091F00E94A009B1E008950C94A0090B
:1011C000672F782F8827B85F39F0B93FCCF3869521
:1011D00077956795B395D9F73EF49095809570957E
:1011E00061957F4F8F4F9F4F0895E89409C097FBFB
:1011F0003EF490958095709561957F4F8F4F9F4FEE
:101200009923A9F0F92F96E9BB279395F695879531
:1012100077956795B795F111F8CFFAF4BB0F11F4F4
:1012200060FF1BC06F5F7F4F8F4F9F4F16C088239B
:1012300011F096E911C0772321F09EE8872F762FD1
:1012400005C0662371F096E8862F70E060E02AF012
:101250009A95660F771F881FDAF7880F96958795FE
:1012600097F90895990F0008550FAA0BE0E8FEEFD3
:1012700016161706E807F907C0F012161306E4075A
:10128000F50798F0621B730B840B950B39F40A2653
:1012900061F0232B242B252B21F408950A2609F431
:1012A000A140A6958FEF811D811D089597F99F6735
:1012B00080E870E060E008959FEF80EC08950024DE
:1012C0000A941616170618060906089500240A94AB
:1012D00012161306140605060895092E0394000C31
:1012E00011F4882352F0BB0F40F4BF2B11F460FFC0
:1012F00004C06F5F7F4F8F4F9F4F089557FD9058E9
:10130000440F551F59F05F3F71F04795880F97FBC9
:10131000991F61F09F3F79F0879508951216130683
:101320001406551FF2CF4695F1DF08C016161706B2
:101330001806991FF1CF86957105610508940895E7
:10134000E894BB2766277727CB0197F908950E9479
:10135000320908F48FEF08950E94BF090C946D09BB
:101360000E945F0938F00E94660920F0952311F071
:101370000C9456090C945C0911240C94A1090E9448
:101380007E0970F3959FC1F3950F50E0551F629F42
:10139000F001729FBB27F00DB11D639FAA27F00DCE
:1013A000B11DAA1F649F6627B00DA11D661F829FF5
:1013B0002227B00DA11D621F739FB00DA11D621FDA
:1013C000839FA00D611D221F749F3327A00D611DF7
:1013D000231F849F600D211D822F762F6A2F1124D9
:1013E0009F5750409AF0F1F088234AF0EE0FFF1F0C
:1013F000BB1F661F771F881F91505040A9F79E3F63
:10140000510580F00C9456090C94A1095F3FE4F358
:10141000983ED4F3869577956795B795F795E795B8
:101420009F5FC1F7FE2B880F911D9695879597F9C1
:1014300008950E943209880B990B0895A1E21A2E93
:10144000AA1BBB1BFD010DC0AA1FBB1FEE1FFF1F68
:10145000A217B307E407F50720F0A21BB30BE40BB8
:10146000F50B661F771F881F991F1A9469F76095FF
:101470007095809590959B01AC01BD01CF010895B9
:10148000EE0FFF1F0590F491E02D0994FB01DC01A4
:0E14900001900D920020E1F70895F894FFCF2F
:10149E00940133019B01760100000000EB006C010A
:1014AE008C003801BD009B00AF000000000032042C
:1014BE006C013C023B02436F6F6C657220697320B6
:1014CE006F6E004E6F20636F6F6C6572206F7220AF
:1014DE006865617465720048656174657220697330
:1014EE00206F6E0054656D7020697320676F6F6496
:1014FE000044697374616E63653A000D0A0050759D
:10150E006D62206F6E0070756D62206F66660050A2
:10151E00756D62206F6666006E616E00696E6600A4
:10152E006F766600546D70206973004E6F20776180
:0C153E00746572206C766C2069732000CC
:00000001FF
